:020000040800F2
:1000000010300020DD0100087D4D00088F3B000806
:10001000794D00086D0E00086D54000800000000C6
:100020000000000000000000000000004501000882
:10003000DD0E00080000000089010008A94D00083D
:10004000F7010008F7010008F7010008F7010008B0
:10005000F7010008F7010008F7010008F7010008A0
:10006000F7010008F7010008F7010008F701000890
:10007000F7010008F7010008F7010008F701000880
:10008000F7010008F7010008F7010008F701000870
:10009000F7010008F7010008F7010008F701000860
:1000A000F7010008F7010008F7010008F701000850
:1000B000614E0008714E0008D14E0008F70100089B
:1000C000F7010008F7010008F7010008F701000830
:1000D000F70100083D5400084D5400085D54000825
:1000E000F7010008F7010008F7010008F701000810
:1000F000F7010008F7010008F7010008F701000800
:10010000F7010008F7010008F7010008F7010008EF
:100110007151000881510008F7010008F70100083B
:10012000F7010008F7010008F7010008F7010008CF
:10013000DFF80CD000F0ACFB004800473963000842
:1001400010300020224B19680868B0E8F00F80F3E7
:100150000988BFF36F8F4FF0000080F311884EF0D5
:100160000D0E70470000000006480068006880F32C
:10017000088862B661B6BFF34F8FBFF36F8F00DFA1
:1001800000BF00BF08ED00E0EFF30980BFF36F8F01
:100190000F4B1A6820E9F00F106008B54FF05000BF
:1001A00080F31188BFF34F8FBFF36F8F07F020FAF2
:1001B0004FF0000080F31188BDE808401968086816
:1001C000B0E8F00F80F30988BFF36F8F704700BF6E
:1001D00060000020EFF3058070470000064880476C
:1001E00006480047FEE7FEE7FEE7FEE7FEE7FEE71C
:1001F000FEE7FEE7FEE7FEE75F4E0008310100087C
:10020000202A04DB203A21FA02F00021704721FA6B
:1002100002F3D040C2F120029140084319467047D2
:1002200040EA01039B0703D009E008C9121F08C078
:10023000042AFAD203E011F8013B00F8013B521EF8
:10024000F9D27047D2B201E000F8012B491EFBD26F
:1002500070470022F6E710B513460A4604461946D1
:10026000FFF7F0FF204610BD421C10F8011B0029CB
:10027000FBD1801A7047034611F8012B00F8012BBF
:10028000002AF9D118467047F0B480EA0102D40F71
:100290004200B2EB410F02D20246084611464A0024
:1002A00042D0C30DDDB2C1F3C752AD1A202D35DAED
:1002B000C1F3160141F4000204B15242C5F1200617
:1002C00002FA06F12A411044B3EBD05F23D0C4B147
:1002D000012DA0EBC35009DCF0BC4FF0004202EA54
:1002E000C352DBB200F5000000F049BA400000F153
:1002F000807000EBC350A0F1807040EAD1704900DB
:1003000009E0490841EAC071A0EBC35000F50000C4
:10031000400800EBC350F0BC00F028BA6142012253
:1003200002EB4101001BF6E7F0BC704781F0004191
:10033000AAE780F00040A7E780EA010210B502F0CA
:100340000043400022D04A001FD0010E01EB126191
:10035000C0F35600C2F3560240F4000042F400021B
:10036000A0FB022000047F39140400D0401C50EA96
:10037000124001D44000491EC2B20C0604EBD0105A
:10038000401C4008802A02D003E0002010BD20F06D
:100390000100002900DA0020184310BD30B480EAC3
:1003A000010202F0004530F0004221F0004013D07D
:1003B00090B1C30DD40DC2F31601C0F31600E41AB8
:1003C00041F4000140F400027D34914201D3641CE9
:1003D00000E04900002C02DA30BC002070474FF4E6
:1003E00000000023914201D3891A034340084FEAD9
:1003F0004101F7D151B1914202D14FF0004105E0E6
:1004000002D24FF0010101E06FF0010103EBC45093
:10041000284430BC00F0AAB92DE9FE4F81EA03045C
:1004200004F0004421F0004100944FF0000B23F051
:10043000004350EA01045ED052EA03045BD0C3F3E8
:100440000A54C1F30A552C44A4F2F3340194A0FBDE
:100450000254C1F3130141F48011C3F3130343F4B5
:10046000801301FB024400FB034E840A970A44EA0E
:10047000815447EA8357A4FB076802958D0A05FB60
:1004800007854FEA932C04FB0C542705029D4FEA85
:10049000065847EA1637B5EB08056EEB070C870ED2
:1004A000920E47EA811742EA8312A7FB0201B6EBDC
:1004B0000B0164EB00042B0D43EA0C335E1844EB94
:1004C0001C50DA465146E7FB0201C5F313044FEA1C
:1004D0000B3343EA14534FEA0432019C43EA060308
:1004E000A4F10C040294009CCDE900B400F082F960
:1004F00003B0BDE8F08F00200146F9E72DE9F04D8B
:1005000081EA030404F0004B21F0004514464FF04B
:10051000000A23F0004150EA050220D054EA01020B
:100520001DD0C5F30A570246C5F31303C1F31300E8
:10053000C1F30A5640F4801543F48013A7EB060874
:10054000101BD64608F2FD3873EB050002D308F104
:10055000010801E092185B41B8F1000F03DA0020B6
:100560000146BDE8F08D00204FF480110646844618
:100570000EE0171B73EB050705D3121B63EB050396
:1005800006434CEA010C49084FEA300092185B41DF
:1005900050EA0107EDD152EA030012D082EA0400CA
:1005A00083EA0501084305D0101BAB4106D20122A6
:1005B000002306E000224FF0004302E06FF001024A
:1005C00053101AEB06004CEB085110EB0A0041EBFC
:1005D0000B01BDE8F04D00F000B9C10F80EAE070FA
:1005E0000844CA079623002100F0C9B896230022C8
:1005F000114600F0C4B80EB5C10F80EAE07008449F
:10060000CA07002140F233438DE80E000A460B462C
:1006100000F0F0F803B000BD0EB540F23341029196
:100620000021CDE900110A460B4600F0E3F803B0C3
:1006300000BD20F00040C10DC0F3160040F40000E2
:100640007F2901DA00207047962903DCC1F1960169
:10065000C8407047963988407047000030B500297F
:1006600004DB4FF00044404264EB0101002B04DB4B
:100670004FF00044524264EB0303994208BF90429A
:1006800030BD000001F0004330B421F0004150EAD9
:10069000010206D00A0DA2F56072C1F31301002A0F
:1006A00002DC30BC00207047440F44EAC104C100A2
:1006B000E01830BC00EBC25000F058B8002801DB55
:1006C000C0F10040002901DBC1F1004188427047C0
:1006D0000FB4002300B589B00CA900910B996FF0FD
:1006E0000042CB601E4B06931E4B07930423CDE9BB
:1006F00001321D4A089202466B46002000F06EF956
:1007000009B05DF814FB70B586B006464FF0FF30B7
:100710000091CDE90101002015460C4604903246B7
:10072000694604A8FFF7D4FF03460498211825B1B1
:1007300008B10A4600E022462A6000280DD0002BAE
:1007400002DD0098884208D0081B0094CDE901041E
:100750003246694604A8FFF7BBFF06B070BD000033
:10076000150C0008330C0008D30800080029A8BFA6
:100770007047401C490008BF20F00100704710B4CA
:10078000B0FA80FC00FA0CF050EA010404BF10BC7F
:10079000704749B1CCF1200421FA04F411FA0CF1AC
:1007A00018BF012121430843A3EB0C01CB1D4FEAE5
:1007B00000614FEA102042BF002010BC704700EBE0
:1007C000C35010440029A4BF10BC7047401C49000E
:1007D00008BF20F0010010BC704710B5002B08DAEC
:1007E000401C41F1000192185B411A4301D120F0F5
:1007F000010010BD2DE9F04D92469B4611B1B1FAB2
:1008000081F202E0B0FA80F22032904600F052F815
:1008100004460F4640EA0A0041EA0B0153465A4695
:10082000084313D0114653EA010019D0C8F1400221
:100830005046FFF7E5FC05460E46504659464246EF
:1008400000F038F8084305D0012004E0204639467E
:10085000BDE8F08D0020054346EAE0762C4337439F
:100860000A986305E40AA0EB08000022FD0A44EAA6
:1008700047540A3002D500200146E9E70105101966
:100880006941DDE9084500196941BDE8F04DA4E77B
:10089000064C074D06E0E06840F0010394E80700CD
:1008A00098471034AC42F6D3FFF746FCB48A0008F0
:1008B000D48A0008202A04DB203A00FA02F1002042
:1008C00070479140C2F1200320FA03F3194390408E
:1008D0007047C0B24FF4F05100F0BCB92DE9FF4FA2
:1008E000087881B09946FF2805D0491C2D2804D0EE
:1008F0000024002308E000230BE00124F9E703EBC8
:10090000830300EB4303491C0878FF28F7D104B1A7
:100910005B4200200090147801462D2C01D02B2C36
:1009200004D1521C2D2C12D00024009400251678DE
:10093000FF2E0ED00A24A0FB04C801FB048100276F
:1009400000FB0711521C16EB0C006941EFE7012474
:10095000EBE7994450EA01020ED00024AA4D264646
:10096000DFF8A88200F08AF982468B46B9F10000D0
:1009700009DAC9F100071BE001980021C0E9001164
:1009800005B0BDE8F08F074612E0F80707D0224611
:100990002B4630464146FFF73FFD06468846224635
:1009A0002B4610461946FFF737FD04460D467F10CB
:1009B000002FEAD1B9F1000F32464346504659465E
:1009C00002DAFFF79BFD01E0FFF726FD009A0AB16E
:1009D00081F00041019AC2E90001D1E72DE9FF4F02
:1009E0001F468DB0D7E901464FF0FF382E2045460F
:1009F0004FF000090B90B9696D1C0E988847396A51
:100A0000824688470028F6D1BAF1FF3F0AD024F485
:100A1000D064002E11DDBAF12B0F08D0BAF12D0FE2
:100A20000BD102E0404611B0ABE744F48064B969F1
:100A30006D1C0E9888478246761E6946600501D572
:100A40002D2000E02B208DF8000001F1010B0DF1AD
:100A5000200809E0B9696D1C0E98884782460F98F6
:100A600044F40074761E0560002E02DDBAF1300FEA
:100A7000F0D00B998A453ED144F0800406E00F99EE
:100A8000681CA9F1010944F400740860B9696D1C7F
:100A9000761E0E98884782463028F0D02BE00B99BE
:100AA0008A4505D1200603D444F08004761E18E060
:100AB000504604F015FD08B30DF11301761E44F401
:100AC00000748B4508D2AAF130000BF8010B200608
:100AD00007D5A9F1010003E0200602D409F10100C5
:100AE0008146A00502D50F99681C0860B9696D1C84
:100AF0000E9888478246002ED1DC53E0002E51DD4F
:100B0000BAF1650F02D0BAF1450F4BD1A00549D516
:100B1000B9696D1C24F44074761E0E98884782468D
:100B2000002E0CDD2B2804D0BAF12D0F07D144F490
:100B30008074B9696D1C0E9888478246761EE00560
:100B400001D52D2100E02B2108F8011BCDF82C80C8
:100B500021E00DF12901761E44F4007488450CD281
:100B6000AAF1300010F0FF0088F8000002D10B99C4
:100B7000884509D908F1010806E0E00501D52448B7
:100B800001E042F20F708146B9696D1C0E988847EA
:100B900082460F980560002E04DD504604F0A0FC4C
:100BA0000028D6D1F9690E988847FF208BF80000FD
:100BB00088F800000020069007904B466A4608A976
:100BC00006A8FFF78BFEA00502D46FF001002AE70C
:100BD00014F0240F0AD0E00714D1DDE906123868BA
:100BE000031D3B600068C0E900120BE0DDE906016F
:100BF000FFF748FD0146E00704D13868021D3A605E
:100C00000068016028460EE7000024400000F03F25
:100C1000F1D8FFFF426842B1016811F8013B23B1EE
:100C2000521EC0E90012184670470121C160881E9B
:100C3000704742685AB1C368016843B983688B4200
:100C400005D0491E521CC0E90012002070474FF029
:100C5000FF3070477F2801D9002208E0064A02EBE6
:100C60005002C007127800D1120902F00F020120D1
:100C70009040084070470000148A00080EB540F20A
:100C8000334202920022CDE900221346FFF7B2FD63
:100C900003B000BD70B58C1810F8015B15F00703A8
:100CA00001D110F8013B2A1106D110F8012B03E005
:100CB00010F8016B01F8016B5B1EF9D12B0705D40D
:100CC0000023521E0DD401F8013BFAE710F8013B56
:100CD000CB1A921C03E013F8015B01F8015B521E72
:100CE000F9D5A142D8D3002070BD70B504460025C7
:100CF0002068806800F0010018B32068806820F048
:100D000001002168886000F033FF054613E000F021
:100D10002FFF401B02280ED92068806800F00100D8
:100D200048B1A06A40F01000A062E06A40F0010003
:100D3000E062012070BD2068806800F0010000289A
:100D4000E5D10020F6E7000038B504460025002074
:100D500000902068806800F0010078BB20688068FF
:100D600040F0010021688860194800681949B0FB0B
:100D7000F1F0009002E00098401E009000980028DA
:100D8000F9D100F0F5FE054619E000F0F1FE401B38
:100D9000022814D92068806800F0010078B9A06AA0
:100DA00040F01000A062E06A40F00100E06200BF85
:100DB000002084F8240000BF012038BD05E0206831
:100DC000806800F001000028DFD00020F5E7000077
:100DD0005C00002040420F0010B5044680211A48F4
:100DE00000F0B8FEB8B9012005F0B2F817490A784A
:100DF0000978491C154B1970154941F8220018460D
:100E0000007878281EDD00231A461946114800682C
:100E100006F008FE16E0012005F09AF80E490A785F
:100E20000978491C0C4B19700C4941F822001846EE
:100E30000078782806DD00231A4619460548006820
:100E400006F0F0FD10BD0000000C0140D9010020AB
:100E500078270020C8010020DA010020582900204E
:100E6000014648780A7840EA0220704700BFFEE752
:100E700000BF0A2145F2010002F0BEFE052005F088
:100E80008DFAF6E770B505460C46642221462846E1
:100E900006F088FF012800D170BD0020207000BF3F
:100EA000FAE7000070B502460C46FF25FF2309E073
:100EB00012F8010B80EA05010648405C80EA030550
:100EC0000548435C2000A4F10106B4B2F0D143EA26
:100ED000052070BD5C8700085C880008704772B60A
:100EE00000BFFEE73EB504460094012001900720B4
:100EF00002906946074800F09BF8064800F0F2FAB5
:100F00000A21044800F02EFA024800F041F980B2AC
:100F10003EBD0000E8010020F8B504460026002090
:100F2000009000BF94F82400012801D10220F8BDF0
:100F3000012084F8240000BF2046FFF7D6FE0646B5
:100F4000002E6CD1A06A20F4885040F00200A0620C
:100F5000022000F007FF35490968B1FBF0F04000BE
:100F6000009002E00098401E009000980028F9D1FF
:100F70002046FFF7E9FE2068806840F008002168FD
:100F8000886000F0F5FD054616E000F0F1FD401B1D
:100F90000A2811D92068806800F0080060B1A06AB2
:100FA00020F0020040F01000A06200BF002084F892
:100FB000240000BF0120BAE72068806800F0080024
:100FC0000028E2D12068806840F004002168886031
:100FD00000F0CEFD054616E000F0CAFD401B0A28D1
:100FE00011D92068806800F0040060B1A06A20F088
:100FF000020040F01000A06200BF002084F824002E
:1010000000BF012093E72068806800F004000028FA
:10101000E2D1A06A20F0020040F00100A06200BF0F
:10102000002084F8240000BF304680E75C000020E8
:1010300038B5024600230020009000BF92F824003B
:10104000012801D1022038BD012082F8240000BF10
:101050004868072812D21068406B0C79641E04EBB4
:1010600084051F24AC40A0430D796D1E05EB85055A
:101070000C68AC4020431468606327E048680D2882
:1010800012D21068006B0C79E41F04EB84051F2456
:10109000AC40A0430D79ED1F05EB85050C68AC4015
:1010A00020431468206311E01068C06A0C790D3C7D
:1010B00004EB84051F24AC40A0430D790D3D05EBE6
:1010C00085050C68AC4020431468E06208680A2873
:1010D00012D31068C0680C780A3C04EB440507245E
:1010E000AC40A0430D780A3D05EB45058C68AC404B
:1010F00020431468E0600FE0106800690C7804EB8E
:1011000044050724AC40A0430D7805EB45058C68E9
:10111000AC402043146820610868102802D0086899
:10112000112827D1174C1068A0421ED11068806882
:1011300000F40000F0B91068806840F40000146802
:10114000A0600868102815D10F4800680F4CB0FB4C
:10115000F4F000EB80004000009002E00098401E98
:10116000009000980028F9D104E0906A40F0200037
:101170009062012300BF002082F8240000BF1846BF
:1011800061E70000002401405C00002040420F00A5
:1011900001460868C06C70472DE9F04104460027FD
:1011A00000250026A84614B90120BDE8F081A068FA
:1011B00010B1207D00B100BFA06A30B90020E0620C
:1011C00084F82400204600F097F82046FFF78DFDB4
:1011D0000746A06A00F01000002873D1002F7ED1CE
:1011E000A06A20F4885040F00200A0623F4AD4E98F
:1011F0000001904208D1E069B0F5402F02D14FF4D0
:10120000002002E0E06900E0E0690143207B41EA60
:1012100040000643A068B0F5807F02D0A068012896
:1012200002D14FF4807000E000200543207D0128AA
:1012300011D1207B38B9A069401E4FF4006141EA0A
:101240004030054307E0A06A40F02000A062E06A59
:1012500040F00100E0622068406820F469402843C3
:10126000216848602068806821490840304321682F
:101270008860A068B0F5807F02D0A068012802D104
:101280004FF4807000E00020B0F5807F03D1208A09
:10129000401E4FEA00582068C06A20F4700040EAFF
:1012A00008002168C8622068806812490840B0427E
:1012B00009D10020E062A06A20F0020040F00100A5
:1012C000A06211E00BE0A06A20F0020040F01000E4
:1012D000A062E06A40F00100E062012704E0A06A39
:1012E00040F01000A062012738465EE7003C014054
:1012F000FDF7E1FFFE0E1FFF10B586B0044600208B
:10130000029003900490059013492068884221D1EF
:1013100000BF1248806940F4007010498861084697
:10132000806900F40070019000BF00BF00BF084654
:10133000806940F0100088610846806900F0100064
:10134000019000BF00BF03200290039002A904484F
:1013500000F060FA06B010BD002401400010024009
:1013600000100140F8B504460D460026002000900C
:10137000002700F0FDFB06462068806800F48070BE
:1013800050B1A06A40F02000A06200BF002084F8A5
:10139000240000BF0120F8BD2068406800F4807080
:1013A00020BB2068C06A00F47000F8B917E0681C20
:1013B000A8B125B100F0DCFB801BA8420FD9206842
:1013C000006800F0020050B9A06A40F00400A0627A
:1013D00000BF002084F8240000BF0320DBE7206862
:1013E000006800F002000028E1D053E0022000F085
:1013F000B9FC38490968B1FBF0F021680969364A3F
:10140000114091B92168C9689211114069B92168E8
:101410000969324A114031B92168C96892111140F5
:1014200009B9142117E0292115E0216809692B4A1F
:10143000114021B92168C9689211114041B1216858
:101440000969274A114029B92168C968114009B9B9
:10145000542100E0FC2100FB01F718E0681C98B162
:1014600025B100F085FB801BA8420DD90098B84239
:101470000AD2A06A40F00400A06200BF002084F8F5
:10148000240000BF032086E70098401C00900098CD
:10149000B842E3D36FF0120021680860A06A40F4FC
:1014A0000070A0622068806800F46020B0F5602FB2
:1014B0000DD1207B58B9A06A20F48070A062A06A88
:1014C00000F4805018B9A06A40F00100A06200202A
:1014D00061E700005C000020244992249224491214
:1014E0004992240070B50446002500BF94F82400FA
:1014F000012801D1022070BD012084F8240000BF22
:101500002046FFF721FC0546002D77D1A06A40F266
:101510000121884340F48070A0623C4920688842E1
:1015200008D13B48006800F4702008B9012002E0AF
:10153000002000E0012078B1A06A20F48010A062B1
:101540002068406800F4806000B3A06A20F4005076
:1015500040F48050A06219E0A06A40F48010A062BC
:101560002B49091F2068884203D0284920688842F7
:1015700004D12748006800F4806000E0002028B112
:10158000A06A20F4005040F48050A062A06A00F4E9
:10159000805020B1E06A20F00600E06201E0002007
:1015A000E06200BF002084F8240000BFC01E216854
:1015B00008602068806800F46020B0F5602F16D1C4
:1015C00012492068884208D11148006800F4702050
:1015D00008B9012002E0002000E0012038B12068B5
:1015E000806840F4A000216888600CE006E0206874
:1015F000806840F480102168886004E000BF00200B
:1016000084F8240000BF284675E700000028014048
:10161000042401400146002291F82100022808D04C
:101620000420886300BF002081F8200000BF012053
:1016300070470868006820F00E000B6818600868A2
:10164000006820F001000B68186091F8403001201C
:101650009840CB6B5860012081F8210000BF00202A
:1016600081F8200000BF1046E2E7000070B5044694
:10167000002594F82100022803D00420A06301254E
:10168000C1E02068006820F00E0021680860206832
:10169000006820F00100216808605C4920688842E9
:1016A00052D95A4978392068884201D1012047E04F
:1016B000564964392068884201D1102040E05349DE
:1016C00050392068884201D1801539E04F493C39B2
:1016D0002068884201D1801432E04C4928392068C2
:1016E000884202D14FF480302AE0484914392068FA
:1016F000884202D14FF4801022E044492068884299
:1017000001D140041CE042492068884201D10120F7
:1017100016E03F4914312068884201D110200FE0C3
:101720003B4928312068884201D1801508E03849BA
:101730003C312068884201D1801401E04FF48030B0
:101740003349091F086051E03049783920688842E0
:1017500001D1012047E02D4964392068884201D138
:10176000102040E0294950392068884201D1801575
:1017700039E026493C392068884201D1801432E0A2
:10178000224928392068884202D14FF480302AE06B
:101790001E4914392068884202D14FF4801022E09B
:1017A0001A492068884201D140041CE01849206889
:1017B000884201D1012016E0154914312068884281
:1017C00001D110200FE0124928312068884201D150
:1017D000801508E00E493C312068884201D1801410
:1017E00001E04FF48030094980394860012084F8D5
:1017F000210000BF002084F8200000BF606B10B102
:101800002046616B8847284670BD0000800002407A
:10181000080402402DE9F847024600239C467BE17C
:101820004FF0010808FA03F4D1F8008008EA040038
:10183000A0427DD1DFF8F4A2D1F80480A8EB0A0918
:10184000D0453AD014DCB8F1030F50D009DCB8F120
:10185000000F31D0B8F1010F1CD0B8F1020F49D1FF
:1018600020E0B8F1110F18D0B8F1120F42D11EE0EC
:10187000B9F5881F25D006DCB9F5803F20D0B9F531
:10188000801F37D11AE0B9F5001F18D0B9F5041F31
:1018900030D117E0D1F80CC02DE0D1F80C8008F160
:1018A000040C28E0D1F80C8008F1080C23E0D1F8F2
:1018B0000C8008F10C0C1EE000BF00BF00BF00BF91
:1018C00000BF00BFD1F80880B8F1000F02D14FF07F
:1018D000040C0BE0D1F80880B8F1010F03D14FF0F0
:1018E000080C146102E04FF0080C546103E04FF063
:1018F000000C00E000BF00BFFF2801D8904601E0C7
:1019000002F104084646FF2802D84FEA830803E0A4
:10191000A3F108084FEA88084746D6F800804FF040
:101920000F0909FA07F928EA09080CFA07F900E093
:101930007AE048EA0908C6F80080D1F8048008F087
:101940008058B8F1805F6FD100BFDFF8E481D8F82C
:10195000188048F00108DFF8D891C9F81880C84607
:10196000D8F8188008F00108CDF8008000BF00BF4B
:101970004FEAB9384FEA930958F829504FEA83786B
:101980004FEA18794FF00F0808FA09F825EA080518
:10199000DFF8A081424502D14FF0000824E0DFF8D3
:1019A0009881424502D14FF001081DE0DFF88C819B
:1019B000424502D14FF0020816E0DFF8848142452B
:1019C00002D14FF003080FE0DFF87881424502D1E1
:1019D0004FF0040808E0DFF87081424502D14FF073
:1019E000050801E04FF006084FEA83794FEA1979BC
:1019F00008FA09F848EA0505DFF850814FEA93092B
:101A000048F82950D1F8048008F48038B8F5803FB0
:101A10000BD1DFF83C81D8F8008048EA0008DFF8F5
:101A20003091C9F800800AE075E0DFF82481D8F829
:101A3000008028EA0008DFF81891C9F80080D1F882
:101A4000048008F40038B8F5003F0ED1DFF80081BB
:101A500008F10408D8F8008048EA0008DFF8F090A0
:101A600009F10409C9F800800DE0DFF8E48008F10D
:101A70000408D8F8008028EA0008DFF8D49009F1BB
:101A80000409C9F80080D1F8048008F48018B8F57A
:101A9000801F0ED1DFF8B88008F10808D8F8008060
:101AA00048EA0008DFF8A89009F10809C9F80080A1
:101AB0000DE0DFF89C8008F10808D8F8008028EADB
:101AC0000008DFF88C9009F10809C9F80080D1F806
:101AD000048008F40018B8F5001F0ED1DFF87080FC
:101AE00008F10C08D8F8008048EA0008DFF8609098
:101AF00009F10C09C9F800800DE0DFF8548008F105
:101B00000C08D8F8008028EA0008DFF8449009F1B2
:101B10000C09C9F800805B1CD1F8008028FA03F892
:101B2000B8F1000F7FF47CAEBDE8F887000011101B
:101B30000010024000080140000C0140001001406C
:101B40000014014000180140001C01400800014041
:101B500000040140024693680B400BB1012000E0F5
:101B6000002070470AB1016101E00B040361704776
:101B700001480068704700005000002003480068DA
:101B80000349097808440149086070475000002063
:101B90005800002010B50848006840F010000649C1
:101BA0000860032000F0CAF80F2000F007F800F0EA
:101BB00047F8002010BD00000020024070B588B03A
:101BC000044600250026002221461C2000F078F85B
:101BD0001C2000F065F800BF1648C06940F0010005
:101BE0001449C8610846C06900F00100019000BFB7
:101BF00000BF02A903A800F0ADFA00F0D3FA450037
:101C00000D48B5FBF0F0461E4FF080400B490860D0
:101C100040F2E7310948C1604660002101618160FE
:101C200000F068FE20B9054800F098FE08B070BDCD
:101C30000120FBE70010024040420F00DC040020BE
:101C400008B500BF1448806940F00100124988615E
:101C50000846806900F00100009000BF00BF00BF8F
:101C60000846C06940F08050C8610846C06900F06D
:101C70008050009000BF00BF00220F21901E00F096
:101C80001FF800BF0549486820F0E06040F0007090
:101C9000486000BF08BD0000001002400000014085
:101CA00001460846002809DB00F01F0301229A4084
:101CB00043099B0003F1E023C3F8002100BF7047F4
:101CC0002DE9F05F80460D461646002703F0D0FB55
:101CD000074639462A46334601F00700C0F1070A95
:101CE000BAF1040F02D94FF0040A01E0C0F1070A6B
:101CF000D14600F1040ABAF1070F02D24FF0000AF0
:101D000001E0A0F1030AD4464FF0010A0AFA09FAE9
:101D1000AAF1010A0AEA020A0AFA0CFA4FF0010BC8
:101D20000BFA0CFBABF1010B0BEA030B4AEA0B04B9
:101D30002146404603F0A4FBBDE8F09F00BF00F041
:101D40000702064B19684FF6FF031940044B0B437B
:101D500043EA0221014B196000BF70470CED00E01F
:101D60000000FA052DE9F04385B0064642A30FCBEB
:101D700001AC0FC444A0006800904FF0000800259B
:101D800000270024A146042E36D004DC012E3BD0CF
:101D9000022E6BD15FE0082E32D0102E66D13B4868
:101DA0004468006800F0807000B301A8C4F3834168
:101DB000475C04F4803070B134484068C0F3404060
:101DC0001DF8008004F4803040B13148B0FBF8F0D9
:101DD00000FB07F502E02F4807FB00F52B484068A1
:101DE00000F48000B0F5800F01D1A94603E068003F
:101DF0000321B0FBF1F93AE000F0F4F9814636E056
:101E000000F0F0F9814632E02048046A04F44070A2
:101E1000B0F5807F05D104F0020010B14FF4004905
:101E200018E004F44070B0F5007F07D11748406A0D
:101E300000F0020010B149F640490BE004F4407094
:101E4000B0F5407F06D11148006800F4003008B1B9
:101E50004FF224490BE000F0B5F90C494968C1F391
:101E60008131491C4900B0FBF1F900E000BF00BF1F
:101E7000484605B0BDE8F0830203040506070809DB
:101E80000A0B0C0D0E0F1010010200000010024092
:101E900000127A0000093D00F8B50446002600252E
:101EA000207800F0010000286BD000274348C0696B
:101EB00000F0805070B900BF4048C06940F08050C9
:101EC0003E49C8610846C06900F08050009000BFDC
:101ED00000BF01273A48006800F48070B0B9384864
:101EE000006840F4807036490860FFF741FE0646FE
:101EF00006E0FFF73DFE801B642801D90320F8BDF2
:101F00002F48006800F480700028F2D02B48006A47
:101F100000F440752DB3A08800F44070A84220D092
:101F20002648006A20F440750120264908600020F8
:101F300008602248056205F0010090B1FFF718FE25
:101F4000064608E0FFF714FE801B41F28831884204
:101F500001D90320D3E71948006A00F002000028E5
:101F6000F0D01648006A20F44070616808431349B5
:101F70000862012F04D10846C06920F08050C86172
:101F800000BF207800F00200022807D10B4840680B
:101F900020F44040A168084308494860207800F0D8
:101FA0001000102807D10548406820F480006169BE
:101FB0000843024948600020A1E7000000100240E9
:101FC000007000404004424270B504460D460CB912
:101FD000012070BD5A48006800F00700A8420ED2E8
:101FE0005748006820F00700284355490860084614
:101FF000006800F00700A84201D00120E9E720783E
:1020000000F0020002281DD1207800F0040004280E
:1020100005D14C48406840F4E0604A494860207867
:1020200000F00800082805D14648406840F4605098
:10203000444948604348406820F0F000A1680843E4
:1020400040494860207800F0010078B360680128BA
:1020500006D13C48006800F4003090B90120B8E790
:102060006068022806D13748006800F0007040B967
:102070000120AEE73348006800F0020008B90120F3
:10208000A7E73048406820F00300616808432D4905
:102090004860FFF76DFD064609E0FFF769FD801B0C
:1020A00041F28831884202D9032092E707E02548AF
:1020B000406800F00C006168B0EB810FEDD1204862
:1020C000006800F00700A8420ED91D48006820F003
:1020D000070028431A4908600846006800F0070016
:1020E000A84201D0012074E7207800F00400042801
:1020F00007D11448406820F4E060E16808431149C2
:102100004860207800F00800082808D10D48406891
:1021100020F46050216940EAC1000A49486000F09B
:1021200061F808494968C1F30311074A515CC84086
:102130000649086006480068FFF740FD002048E7B0
:102140000020024000100240FC8900085C000020D2
:10215000540000200F2202600D4A526802F0030270
:1021600042600B4A526802F0F0028260084A5268EC
:1021700002F4E062C260064A526802F46052D20879
:102180000261044A126802F007020A607047000008
:102190000010024000200240014800687047000023
:1021A0005C00002000B5FFF7F7FF04494968C1F360
:1021B0000221034A515CC84000BD000000100240EB
:1021C0000C8A000800B5FFF7E7FF04494968C1F32E
:1021D000C221034A515CC84000BD0000001002400B
:1021E0000C8A0008F0B585B00FF26C0C9CE8E0108A
:1021F00001A8A0E8E0101CA52D6800950021002290
:10220000002300240020194D696801F00C05F5B188
:10221000042D02D0082D19D101E0154819E001ADB7
:10222000C1F38346AC5D01F4803555B10F4D6D6847
:10223000C5F340451DF805200D4D6543B5FBF2F390
:1022400002E00C4D04FB05F3184602E000BF08480D
:1022500000BF00BF05B0F0BD020304050607080972
:102260000A0B0C0D0E0F10100102000000100240AE
:1022700000127A0000093D00F8B504460CB90120AF
:10228000F8BD207800F00100002878D0F8484068B8
:1022900000F00C0004280CD0F548406800F00C0059
:1022A000082811D1F248406800F48030B0F5803F32
:1022B0000AD1EF48006800F4003000285FD0606861
:1022C00000285CD10120DBE700BF6068B0F5803FEB
:1022D00006D1E748006840F48030E549086028E00E
:1022E000606858B9E248006820F48030E04908602E
:1022F0000846006820F4802008601AE06068B0F5A5
:10230000A02F0BD1DA48006840F48020D84908603B
:102310000846006840F4803008600AE0D44800684D
:1023200020F48030D24908600846006820F48020FC
:10233000086000BF606888B1FFF71AFC054606E038
:10234000FFF716FC401B642801D9032098E7C84812
:10235000006800F400300028F2D010E0FFF708FC1D
:10236000054606E0FFF704FC401B642801D9032062
:1023700086E7BF48006800F400300028F2D12078DA
:1023800000F00200022857D1B948406800F00C0064
:1023900050B1B748406800F00C00082818D1B44884
:1023A000406800F4803098B9B148006800F002003D
:1023B00020B12069012801D0012061E7AC48006804
:1023C00020F0F800616940EAC100A949086033E0E3
:1023D0002069E8B10120A7490860FFF7C9FB05465D
:1023E00006E0FFF7C5FB401B022801D9032047E7A1
:1023F0009F48006800F002000028F2D09C48006866
:1024000020F0F800616940EAC1009949086013E0D2
:10241000002098490860FFF7ABFB054606E0FFF790
:10242000A7FB401B022801D9032029E79048006838
:1024300000F002000028F2D1207800F008000828FF
:102440002DD1A069B8B101208B490860FFF790FB3E
:10245000054606E0FFF78CFB401B022801D903204C
:102460000EE78348406A00F002000028F2D0012005
:1024700002F086FC13E000207F490860FFF778FB3C
:10248000054606E0FFF774FB401B022801D9032034
:10249000F6E67748406A00F002000028F2D1207882
:1024A00000F00400042873D100277148C06900F0CF
:1024B000805070B900BF6E48C06940F080506C49D0
:1024C000C8610846C06900F08050009000BF00BF9E
:1024D00001276A48006800F48070B0B96748006856
:1024E00040F4807065490860FFF742FB054606E04E
:1024F000FFF73EFB401B642801D90320C0E65F487C
:10250000006800F480700028F2D000BFE068012865
:1025100006D15748006A40F001005549086227E09B
:10252000E06858B95248006A20F00100504908623A
:102530000846006A20F00400086219E0E0680528F7
:102540000BD14B48006A40F0040049490862084634
:10255000006A40F0010008620AE04548006A20F085
:102560000100434908620846006A20F0040008623E
:1025700000BFE068A0B1FFF7FBFA054609E0FFF7EE
:10258000F7FA401B41F28831884202D9032077E6EE
:1025900022E03748006A00F002000028EFD012E085
:1025A000FFF7E6FA054608E0FFF7E2FA401B41F2C2
:1025B0008831884201D9032062E62D48006A00F084
:1025C00002000028F0D1012F05D12948C06920F070
:1025D00080502749C86100BFE069C8B324484068FB
:1025E00000F00C00082860D0E069022848D10020E3
:1025F00020490866FFF7BCFA054606E0FFF7B8FA7F
:10260000401B022801D903203AE61948006800F06F
:1026100000700028F2D1206AB0F5803F07D114483D
:10262000406820F40030A168084311494860D4E9AB
:10263000080108430E49496821F4741108430C4904
:10264000486001200B490866FFF792FA054607E04B
:102650003DE0FFF78DFA401B022801D903200FE669
:102660000348006800F000700028F2D02FE000005E
:1026700000100240000042428004424200700040CC
:10268000002014490866FFF773FA054606E0FFF7D5
:102690006FFA401B022801D90320F1E50E480068BB
:1026A00000F000700028F2D111E0E069012800D1AB
:1026B000E6E50948466806F48031206A814204D183
:1026C00006F47011606A814201D00120D8E5002033
:1026D000D6E50000000042420010024010B504465A
:1026E0000CB9012010BD606A38B96068B0F5827F0E
:1026F00000D105E00021E16102E00021216161617A
:102700000021A16294F8510028B9002084F85000FB
:10271000204600F043F8022084F851002068006849
:1027200020F0400021680860A08800F482702189B0
:1027300001F404410843A18901F400610843217CAC
:1027400001F002010843217D01F001010843218BC2
:1027500001F400710843217F01F038010843202172
:10276000095D01F080010843218D01F40051084307
:10277000216808600421A06901EA104021684860CE
:102780002068C06920F400602168C861002060658D
:10279000012084F851000020A4E7000010B586B0A5
:1027A000044600200290039004900590254920687B
:1027B000884245D100BF2448C06940F40040224906
:1027C000C8610846C06900F40040019000BF00BF26
:1027D00000BF0846806940F00400886108468069AF
:1027E00000F00400019000BF00BF00BF08468069F0
:1027F00040F0080088610846806900F008000190F8
:1028000000BF00BF4FF4004002900220039003205D
:10281000059002A90D48FEF7FDFF28200290022036
:1028200003900320059002A90948FEF7F3FF10204A
:10283000029000200390049002A90548FEF7EAFFE9
:1028400006B010BD003C00400010024000080140EE
:10285000000C01407047704730B502460B4600BF80
:1028600092F83C00012801D1022030BD012082F8FD
:102870003C0000BF022082F83D00106844681068E8
:10288000816824F070041868044310684460144D93
:102890001068A84213D0134D1068A8420FD01068DA
:1028A000B0F1804F0BD0104D1068A84207D00F4DEB
:1028B0001068A84203D00E4D1068A84205D121F03F
:1028C00080015868014310688160012082F83D0052
:1028D00000BF002082F83C0000BF00BFC5E7000039
:1028E000002C01400034014000040040000800407A
:1028F000000C004010B504460CB9012010BD94F83E
:102900003D0028B9002084F83C00204600F025F85E
:10291000022084F83D00211D206802F0E1FA012028
:1029200084F8460000BF84F83E0001213F20015595
:10293000402001554120015500BF00BF012084F80F
:10294000420043200155442001554520015500BF58
:10295000012084F83D000020D0E77047014691F83F
:102960003D00012801D001207047022081F83D0080
:102970000868C06840F001000B68D860164B086812
:10298000984213D0154B086898420FD00868B0F1F0
:10299000804F0BD0124B0868984207D0114B086843
:1029A000984203D0104B086898420CD108688068A0
:1029B00000F00702062A0CD00868006840F0010009
:1029C0000B68186005E00868006840F001000B68BB
:1029D00018600020C8E70000002C014000340140CE
:1029E0000004004000080040000C00400146086858
:1029F000C06820F001000A68D06000BF0868006A63
:102A000041F21112104050B90868006A921010404B
:102A100028B90868006820F001000A68106000BF4B
:102A2000012081F83D0000207047704710B5044632
:102A300020680069C0F34000D8B12068C068C0F3C6
:102A40004000B0B16FF002002168086101202077DA
:102A50002068806900F0030018B12046FFF7E5FF09
:102A600005E0204600F00EF9204600F073FB002040
:102A7000207720680069C0F38000D8B12068C06862
:102A8000C0F38000B0B16FF004002168086102203B
:102A900020772068806900F4407018B12046FFF765
:102AA000C4FF05E0204600F0EDF8204600F052FBA0
:102AB0000020207720680069C0F3C000D8B12068EA
:102AC000C068C0F3C000B0B16FF0080021680861B1
:102AD000042020772068C06900F0030018B1204668
:102AE000FFF7A3FF05E0204600F0CCF8204600F0F9
:102AF00031FB0020207720680069C0F30010D8B1B6
:102B00002068C068C0F30010B0B16FF010002168F9
:102B10000861082020772068C06900F4407018B16F
:102B20002046FFF782FF05E0204600F0ABF8204684
:102B300000F010FB002020772068006900F0010001
:102B400058B12068C06800F0010030B16FF001009A
:102B500021680861204600F06DFC20680069C0F320
:102B6000C01058B12068C068C0F3C01030B16FF019
:102B70008000216808612046FFF76CFE206800692C
:102B8000C0F3801058B12068C068C0F3801030B125
:102B90006FF0400021680861204600F061FC206869
:102BA0000069C0F3401058B12068C068C0F34010FD
:102BB00030B16FF02000216808612046FFF74BFE1E
:102BC00010BD000010B586B00446002002900390AE
:102BD000049005900E492068884216D100BF0D4828
:102BE000806940F008000B4988610846806900F060
:102BF0000800019000BF00BF8020029002200390D7
:102C0000059002A90448FEF705FE06B010BD0000BD
:102C10000008004000100240000C014070B504465E
:102C20000E46154600BF94F83C00012801D1022051
:102C300070BD012084F83C0000BF35B1042D09D0DF
:102C4000082D0CD00C2D14D10EE03146206802F076
:102C5000A7F90FE03146206802F0DAF90AE03146C0
:102C6000206802F013FA05E03146206802F04AFAC3
:102C700000E000BF00BF00BF002084F83C0000BFA0
:102C800000BFD5E710B504460C492068884213D12F
:102C9000207F022806D10421094800F00DF90948D7
:102CA00000688047207F042806D10821044800F0EE
:102CB00003F905480068804710BD0000000400408B
:102CC000080300202C0000203000002010B504462E
:102CD0000CB9012010BD94F83D0028B9002084F8FB
:102CE0003C00204600F026F8022084F83D00211D1B
:102CF000206802F0F5F8012084F8460000BF84F84F
:102D00003E0001213F200155402001554120015541
:102D100000BF00BF012084F8420043200155442039
:102D200001554520015500BF012084F83D000020D9
:102D3000D0E7000038B504460D492068884215D117
:102D400000BF0C48C06940F002000A49C86108464B
:102D5000C06900F00200009000BF00BF03220521FF
:102D60001D20FEF7ADFF1D20FEF79AFF38BD0000C5
:102D7000000400400010024070B504460D4615B92D
:102D800094F83E000BE0042D02D13F20005D06E0E8
:102D9000082D02D14020005D01E04120005D0128A6
:102DA00001D0012070BD1DB9022084F83E000EE064
:102DB000042D03D102213F20015508E0082D03D145
:102DC00002214020015502E002214120015535B188
:102DD000042D0BD0082D10D00C2D1CD114E0206830
:102DE000C06840F002002168C86015E02068C06833
:102DF00040F004002168C8600EE02068C06840F020
:102E000008002168C86007E02068C06840F0100032
:102E10002168C86000E000BF00BF01222946206889
:102E200002F0ACF81F492068884203D01E49206890
:102E3000884201D1012000E0002028B12068406CC8
:102E400040F400402168486416492068884213D045
:102E50001549206888420FD02068B0F1804F0BD010
:102E600012492068884207D011492068884203D05F
:102E70001049206888420CD12068806800F007065D
:102E8000062E0CD02068006840F001002168086020
:102E900005E02068006840F001002168086000201B
:102EA00080E70000002C0140003401400004004095
:102EB00000080040000C004030B504460D4635B116
:102EC000042D0BD0082D10D00C2D1CD114E020683F
:102ED000C06820F002002168C86015E02068C06862
:102EE00020F004002168C8600EE02068C06820F06F
:102EF00008002168C86007E02068C06820F0100062
:102F00002168C86000E000BF00BF00222946206899
:102F100002F034F823492068884203D0224920680F
:102F2000884201D1012000E0002090B100BF20685C
:102F3000006A41F21111084050B92068006A8910F6
:102F4000084028B92068406C20F40040216848649B
:102F500000BF00BF2068006A41F21111084050B95B
:102F60002068006A8910084028B92068006820F0AD
:102F700001002168086000BF1DB9012084F83E00EF
:102F80000EE0042D03D101213F20015508E0082D5A
:102F900003D101214020015502E0012141200155CA
:102FA000002030BD002C01400034014070B50446C3
:102FB0000D46164600BF94F83C00012801D10220BE
:102FC00070BD012084F83C0000BF36B1042E1BD038
:102FD000082E31D00C2E5ED145E02946206801F044
:102FE000DFFF2068806940F0080021688861206860
:102FF000806920F00400216888612068806929695F
:1030000008432168886147E02946206802F000F8FB
:103010002068806940F400602168886120688069C8
:1030200020F480602168886120688069296940EA0D
:103030000120216888612FE02946206802F026F8E7
:103040002068C06940F008002168C8612068C06934
:1030500020F004002168C8612068C069296908431C
:103060002168C86118E02946206802F04BF8206802
:10307000C06940F400602168C8612068C06920F41C
:1030800080602168C8612068C069296940EA012020
:103090002168C86100E000BF00BF00BF002084F8C5
:1030A0003C0000BF00BF8BE710B504460CB90120FF
:1030B00010BD94F83D0028B9002084F83C0020465B
:1030C00000F026F8022084F83D00211D206801F060
:1030D00007FF012084F8460000BF84F83E0001216C
:1030E0003F200155402001554120015500BF00BF40
:1030F000012084F842004320015544200155452019
:10310000015500BF012084F83D000020D0E70000F9
:1031100038B504460D492068884215D100BF0C48D7
:10312000C06940F004000A49C8610846C06900F05F
:103130000400009000BF00BF052211461E20FEF7CC
:10314000BFFD1E20FEF7ACFD38BD000000080040AA
:10315000001002407047000070B504460D4615B9D6
:1031600094F83E000BE0042D02D13F20005D06E004
:10317000082D02D14020005D01E04120005D0128C2
:1031800001D0012070BD1DB9022084F83E000EE080
:10319000042D03D102213F20015508E0082D03D161
:1031A00002214020015502E0022141200155012267
:1031B0002946206801F0E2FE1F492068884203D0BA
:1031C0001E492068884201D1012000E0002028B17A
:1031D0002068406C40F4004021684864164920682B
:1031E000884213D01549206888420FD02068B0F17A
:1031F000804F0BD012492068884207D011492068BF
:10320000884203D01049206888420CD12068806829
:1032100000F00706062E0CD02068006840F0010080
:103220002168086005E02068006840F0010021681E
:1032300008600020A6E70000002C01400034014097
:103240000004004000080040000C004070B5044637
:103250000D4615B994F83E000BE0042D02D13F2035
:10326000005D06E0082D02D14020005D01E0412014
:10327000005D012801D0012070BD1DB9022084F835
:103280003E000EE0042D03D102213F20015508E04D
:10329000082D03D102214020015502E002214120E6
:1032A000015535B1042D0BD0082D10D00C2D1CD19B
:1032B00014E02068C06840F002002168C86015E092
:1032C0002068C06840F004002168C8600EE02068F3
:1032D000C06840F008002168C86007E02068C06846
:1032E00040F010002168C86000E000BF00BF01226C
:1032F0002946206801F042FE1F492068884203D019
:103300001E492068884201D1012000E0002028B138
:103310002068406C40F400402168486416492068E9
:10332000884213D01549206888420FD02068B0F138
:10333000804F0BD012492068884207D0114920687D
:10334000884203D01049206888420CD120688068E8
:1033500000F00706062E0CD02068006840F001003F
:103360002168086005E02068006840F001002168DD
:103370000860002080E70000002C0140003401407C
:103380000004004000080040000C004030B5044636
:103390000D4600222946206801F0F0FD23492068EF
:1033A000884203D022492068884201D1012000E0F0
:1033B000002090B100BF2068006A41F2111108405E
:1033C00050B92068006A8910084028B92068406C0C
:1033D00020F400402168486400BF00BF2068006AF4
:1033E00041F21111084050B92068006A8910084064
:1033F00028B92068006820F001002168086000BF3B
:103400001DB9012084F83E000EE0042D03D10121F6
:103410003F20015508E0082D03D10121402001552E
:1034200002E0012141200155002030BD002C014067
:103430000034014038B504462068B0F1804F01D116
:10344000FEF79CFB04492068884204D16946034882
:10345000006804F037FC38BD00080040C8010020B7
:1034600070477047704701460022002391F83D20C5
:1034700091F83E3042EA0300704700002DE9F84F12
:103480000446206805682068C668206847694FF0D0
:103490000009CA4605F00F09B9F1000F0AD105F07D
:1034A000200038B106F0200020B1204601F0A5FE32
:1034B000BDE8F88FB9F1000F71D007F0010018B91D
:1034C00006F4907000286AD005F0010030B106F4CF
:1034D000807018B1206C40F00100206405F00400F9
:1034E00030B107F0010018B1206C40F002002064F8
:1034F00005F0020030B107F0010018B1206C40F077
:103500000400206405F0080048B106F0200010B95E
:1035100007F0010018B1206C40F008002064206C16
:1035200068B305F0200028B106F0200010B1204655
:1035300001F063FE20684069C0F3801A206C00F03F
:10354000080010B9BAF1000F22D0204601F02AFE7F
:103550002068406900F04000B0B12068406920F068
:10356000400021684861A06B50B15648A16B486388
:10357000A06BFEF77BF810B1A06B416B88470CE0A5
:103580002046FFF76FFF08E02046FFF76BFF04E0DF
:103590002046FFF767FF0020206489E7FFE7206BE4
:1035A000012878D105F01000002874D006F0100032
:1035B000002870D000BF00200090206800680090B4
:1035C00020684068009000BF00BF2068406900F09C
:1035D0004000C0B3A06B006840681FFA80F8B8F1E3
:1035E000000F2FD0A08D40452CDDA4F82E80A06BBD
:1035F000806920281FD02068C06820F4807021686E
:10360000C8602068406920F0010021684861206896
:10361000406920F0400021684861202084F83E0085
:10362000002020632068C06820F010002168C86076
:10363000A06BFDF7EFFFA08DE28D801A81B22046CE
:10364000FFF70FFF34E7FFE7A08DE18D401A1FFA67
:1036500080F8E08DE8B1B8F1000F1AD02068C0689A
:1036600020F490702168C8602068406920F0010053
:1036700021684861202084F83E00002020632068F3
:10368000C06820F010002168C86041462046FFF75E
:10369000E8FE0DE7FFE705F0800030B106F080009E
:1036A00018B1204601F09AFE02E705F0400030B163
:1036B00006F0400018B1204601F08FFDF8E600BF8B
:1036C000F6E600009151000810B504460CB901203F
:1036D00010BDA06900B100E000BF94F83D0028B91A
:1036E000002084F83C00204600F028F8242084F8CC
:1036F0003D002068C06820F400502168C860204662
:1037000001F0EEFD2068006920F490402168086116
:103710002068406920F02A00216848612068C0685C
:1037200040F400502168C86000202064202084F804
:103730003D0084F83E000020CAE7000010B586B0C6
:103740000446002002900390049005909B49206855
:10375000884237D100BF9A48C06940F40020984998
:10376000C8610846C06900F40020019000BF00BF96
:1037700000BF0846806940F01000886108468069F3
:1037800000F01000019000BF00BF08150290022059
:1037900003900320059002A98A48FEF73BF84FF4F6
:1037A0000060029000200390049002A98548FEF773
:1037B00031F8002205213420FEF782FA3420FEF78A
:1037C0006FFAF9E080492068884243D100BF7C4805
:1037D000C06940F480107A49C8610846C06900F4A5
:1037E0008010019000BF00BF00BF0846806940F014
:1037F000100088610846806900F01000019000BF49
:1038000000BF00BF0846806940F02000886108467C
:10381000806900F02000019000BF00BF8814029072
:10382000022003900320059002A96648FDF7F2FFED
:103830000420029000200390049002A96348FDF741
:10384000E9FF002205213520FEF73AFA3520FEF780
:1038500027FAB1E05E492068884237D100BF584856
:10386000806940F48040564988610846806900F4C8
:103870008040019000BF00BF00BF0846806940F053
:10388000040088610846806900F00400019000BFD0
:1038900000BF48150290022003900320059002A962
:1038A0004C48FDF7B7FF4FF4806002900020039072
:1038B000049002A94748FDF7ADFF0022052125200D
:1038C000FEF7FEF92520FEF7EBF975E04249206886
:1038D000884236D100BF3A48C06940F400303849C8
:1038E000C8610846C06900F40030019000BF00BF05
:1038F00000BF0846806940F004008861084680697E
:1039000000F00400019000BF00BF042002900220DC
:1039100003900320059002A92E48FDF77BFF0820A5
:10392000029000200390049002A92A48FDF772FF3C
:10393000012205212620FEF7C3F92620FEF7B0F963
:103940003AE026492068884236D100BF1C48C06949
:1039500040F480201A49C8610846C06900F48020FC
:10396000019000BF00BF00BF0846806940F008001A
:1039700088610846806900F00800019000BF00BF20
:1039800008150290022003900320059002A9144814
:10399000FDF740FF4FF40060029000200390049078
:1039A00002A90F48FDF736FF022205212720FEF766
:1039B00087F92720FEF774F906B010BD004C0040CF
:1039C000001002400010014000500040001401406F
:1039D0000038014000080140004400400048004019
:1039E000000C014010B5034693F83E0020281FD17B
:1039F00001B10AB9012010BD99629A85DA850020CB
:103A00001864222083F83E001868C06840F4807073
:103A10001C68E0601868406940F001001C68606143
:103A20001868C06840F020001C68E0600020E2E7F1
:103A30000220E0E77CB505460024002001903349D0
:103A40002868884224D100260AE03148805D009031
:103A5000002301AA69462F48006804F0B7F8761CD5
:103A6000012EF2DB002401E0641C00BF2A48FFF7AE
:103A7000FAFC2228F8D000BF002401E0641C00BF3B
:103A8000012223492448FFF7ADFF0028F6D100BFEB
:103A900022492868884219D12149087800F0FEFDA2
:103AA000002401E0641C00BF1E48FFF7DCFC222854
:103AB000F8D000BF002401E0641C00BF01221849B7
:103AC0001848FFF78FFF0028F6D100BF1649286875
:103AD000884219D11549087800F0DEF8002401E089
:103AE000641C00BF1248FFF7BEFC2228F8D000BFBC
:103AF000002401E0641C00BF01220C490C48FFF7C0
:103B000071FF0028F6D100BF7CBD0000004C0040D2
:103B100037000020480000208803002000480040B3
:103B200036000020980400200044004035000020AA
:103B30005404002010B5034693F83D00202823D1FB
:103B400001B10AB9012010BD00BF93F83C00012863
:103B500001D10220F7E7012083F83C0000BF196281
:103B60009A84DA8400201864212083F83D0000BF85
:103B7000002083F83C0000BF1868C06840F0800057
:103B80001C68E0600020DEE70220DCE7704700BF31
:103B9000FEE7000010B505484078042802D100F087
:103BA0004FF800E000BF00BF10BD0000382B002020
:103BB00010B50F48007800B910BD00200C490870FE
:103BC0000C4890F84000042800DA0AE0094890F810
:103BD0004010FDF767F9044604B102E0FFF7DAFF91
:103BE00000BF0020034981F8400000BFE4E7000067
:103BF000E0010020382B002070B504460D46002659
:103C000011E02A462146012000F070F80A2002F057
:103C1000C5FBFFF7CDFF094890F8D200002800DD72
:103C200003E0701CC6B2012EEBDB00BF034890F826
:103C3000D20008B9002070BD0120FCE7382B00201D
:103C400070B5134890F84000002820DD10488478B3
:103C5000B0F8CC006FF4A0410844B8B9142C14D1CA
:103C60000B4EF61C3046FDF7FBF80546B61C3046F9
:103C7000FDF7F6F840EA0545284603F029FD054919
:103C800008600120711F81F8D20000BF00BF70BD25
:103C9000382B0020DC01002070B5044600200D49BF
:103CA000087040F63D650C4A2946032001F068FF84
:103CB0000A4890F8400040280ADA084890F8401076
:103CC00090F84000401C054A82F8400010464454D9
:103CD00070BD0000E0010020E13C0008382B00200E
:103CE0000120014908707047E001002070B50646C8
:103CF0000C46154600202B4981F8C400084690F870
:103D0000C41090F8C400401C264A82F8C40002F196
:103D1000440046540421443890F8C42090F8C4006C
:103D2000401C204B83F8C40003F14400815421124D
:103D3000443890F8C42090F8C400401C83F8C400B4
:103D400003F144008154443890F8C42090F8C40032
:103D5000401C83F8C40003F1440084542912443801
:103D600090F8C42090F8C400401C83F8C40003F10C
:103D700044008154443890F8C42090F8C400401C9A
:103D800083F8C40003F14400855400F00DF80020CE
:103D9000044981F8D20081F8CE500846A0F8CC4002
:103DA00070BD0000382B002010B5134890F8C410E7
:103DB0004430FDF777F8044621120F4890F8C420EC
:103DC00090F8C400401C0C4B83F8C40003F144007D
:103DD0008154443890F8C42090F8C400401C83F803
:103DE000C40003F144008454443890F8C4104430B3
:103DF00000F004F810BD0000382B002070B5044618
:103E00000D462A4621460648FFF794FE00BF0448A7
:103E100000680068C0F380100028F8D070BD000072
:103E200054040020FEB50020524981F821000846C4
:103E3000807F082803D0032081F82100FEBD4D4873
:103E4000801CFDF70DF807464A48001DFDF708F8ED
:103E50000546E81DC11700EB5171CE10B7F5807F04
:103E600035DD002D33DD7819B0F58B7F2FDC002494
:103E700004E000200DF80400601C84B2B442F8DBBA
:103E8000002421E0611C3944491EC8B201F0FCFD48
:103E9000C0B1E21704EB5272D2101DF80220214685
:103EA000E31704EB5373DB10A4EBC30C012303FAF9
:103EB0000CF31A43D2B22046E31704EB5373DB1022
:103EC0000DF80320601C84B2AC42DBDB03E002206F
:103ED000284981F82100274890F82100002841D185
:103EE000244981F8A2000846017890F8A22090F8B1
:103EF000A200401C1F4B83F8A20003F12200815452
:103F00002238417890F8A22090F8A200401C83F853
:103F1000A20003F122008154223890F8A22090F8E8
:103F2000A200401C83F8A20003F122008654002462
:103F30000FE01DF804100F4890F8A22090F8A2009E
:103F4000401C0C4B83F8A20003F122008154601C3A
:103F500084B2B442EDDB074890F8A210223000F0A2
:103F6000EBFB04E0034991F8210000F0BDFB00BF2A
:103F700064E70000B826002070B590B000204949E1
:103F800081F821000846807F082803D0032081F8AB
:103F9000210027E04348801CFCF762FF06464148A9
:103FA000001DFCF75DFF0546202D04D903203D4987
:103FB00081F8210016E0002410E06846022202FB8E
:103FC0000401304600F022FB20B90220354981F877
:103FD000210005E0701C86B2601C84B2AC42ECDBB0
:103FE00000BF00BF2F4890F82100002852D12D4972
:103FF00081F8A2000846017890F8A22090F8A2006B
:10400000401C284B83F8A20003F12200815422387F
:10401000417890F8A22090F8A200401C83F8A200FA
:1040200003F1220081546806010E184690F8A22080
:1040300090F8A200401C83F8A20003F122008154F2
:1040400000241EE01DF81410164890F8A22090F8E5
:10405000A200401C134B83F8A20003F122008154FC
:104060006000401C1DF80010184690F8A22090F83F
:10407000A200401C83F8A20003F122008154601CBE
:1040800084B2AC42DEDB074890F8A210223000F088
:1040900053FB04E0034991F8210000F025FB10B028
:1040A00070BD0000B826002070B586B00A2101A8B6
:1040B000FCF7CFF800205D4981F821000846807F99
:1040C000082803D0032081F821004EE05748801CC7
:1040D000FCF7C6FE06465548001DFCF7C1FE054626
:1040E000B6F5806F3CDD002D3ADD701940F20641D7
:1040F000884235DC002430E0A6F20140052822D2B7
:10410000DFE800F0030B10151B0049490868FCF7B5
:1041100090FA01A921F814001AE0002001A921F861
:10412000140015E0002001A921F8140010E0414816
:10413000408801A921F814000AE03E48008801A93E
:1041400021F8140004E0002001A921F8140000BFA8
:1041500000BF701C86B2601C84B2AC42CCDB03E0B2
:104160000220324981F8210000BF304890F8210038
:10417000002853D12D4981F8A2000846017890F813
:10418000A22090F8A200401C284B83F8A20003F163
:10419000220081542238417890F8A22090F8A200A1
:1041A000401C83F8A20003F1220081546806010E2E
:1041B000184690F8A22090F8A200401C83F8A200B4
:1041C00003F12200815400241FE001A830F81400FC
:1041D0000112164890F8A22090F8A200401C134B40
:1041E00083F8A20003F12200815401A810F81410F2
:1041F000184690F8A22090F8A200401C83F8A20074
:1042000003F122008154601C84B2AC42DDDB07481C
:1042100090F8A210223000F08FFA04E0034991F8E0
:10422000210000F061FA06B070BD0000B826002041
:10423000CC010020DC01002070B50020894981F804
:1042400021000846807F082803D0032081F8210040
:10425000FBE08448801CFCF703FE05468148001DF6
:10426000FCF7FEFD04463CB1B4F57F4F04D00320BB
:104270007C4981F82100E8E040F20110854208D134
:104280001CB1012001F0B0FBDEE0012001F056FB83
:10429000DAE0B5F5817F08D11CB1022001F0A4FB62
:1042A000D2E0022001F04AFBCEE040F2031085424A
:1042B00008D11CB1032001F097FBC5E0032001F0F9
:1042C0003DFBC1E0B5F5827F08D11CB1042001F0AF
:1042D0008BFBB9E0042001F031FBB5E040F20510A2
:1042E000854208D11CB1052001F07EFBACE0052021
:1042F00001F024FBA8E0B5F5837F08D11CB10620AE
:1043000001F072FBA0E0062001F018FB9CE040F2F7
:104310000710854208D11CB1072001F065FB93E02E
:10432000072001F00BFB8FE0B5F5847F08D11CB1AD
:10433000082001F059FB87E0082001F0FFFA83E034
:1043400040F20910854208D11CB1092001F04CFB54
:104350007AE0092001F0F2FA76E0B5F5857F08D120
:104360001CB10A2001F040FB6EE00A2001F0E6FAE1
:104370006AE0B5F5887F0CD12CB101213A4800687C
:1043800003F0F5F960E002213748006803F0EFF927
:104390005AE040F2111085420CD12CB10421324870
:1043A000006803F0E4F94FE008212F48006803F0AB
:1043B000DEF949E0B5F5897F0CD12CB110212A48EE
:1043C000006803F0D4F93FE020212748006803F09B
:1043D000CEF939E040F2131085420CD12CB14021C6
:1043E0002148006803F0C3F92EE080211E480068D0
:1043F00003F0BDF928E0B5F58A7F0ED134B14FF452
:1044000080711948006803F0B2F91DE04FF40071A3
:104410001548006803F0ABF916E040F2151085422C
:104420000ED134B14FF480610F48006803F09FF95A
:104430000AE04FF400610C48006803F098F903E0CB
:104440000220084981F8210000BF064890F82100A9
:1044500010B900F05FF904E0024991F8210000F082
:1044600043F970BDB8260020BC01002070B50020C3
:10447000164981F821000846807F082803D00320D0
:1044800081F8210014E01148801CFCF7E9FC054686
:104490000E48001DFCF7E4FC04462146284600F0C7
:1044A00077F9012803D00220084981F8210000BFD4
:1044B000064890F8210010B900F02CF904E00349F7
:1044C00091F8210000F010F970BD0000B82600201E
:1044D0002DE9F0410020204981F821000846807F25
:1044E0000B2803DA032081F8210026E01A48801CFB
:1044F000FCF7B6FC06461848001DFCF7B1FC054663
:1045000015488779002414E06100C91D124A8818F3
:10451000FCF7A6FC8046311988B2414600F038F914
:10452000012804D002200C4981F8210003E0601C1E
:10453000C4B2AC42E8DB00BF00BF074890F82100DE
:1045400010B900F0E7F804E0034991F8210000F009
:10455000CBF8BDE8F0810000B826002010B5174860
:104560004078052815D006DC012809D003280AD098
:10457000042817D10AE006280ED0102812D10EE028
:10458000FFF750FC17E0FFF7F7FC14E0FFF78CFD96
:1045900011E0FFF751FE0EE0FFF768FF0BE0FFF7B9
:1045A00097FF08E00120054981F8210091F82100DA
:1045B00000F09AF800BF00BF10BD0000B826002030
:1045C00070B51048007800B970BD00200D49087022
:1045D0000D48807F042800DA0EE00B48817FFCF74D
:1045E00061FC044604B107E007480578012D00D0BE
:1045F00002E0FFF7B3FF00BF00200349887700BF48
:10460000E2E70000B0010020B826002010B5034604
:104610000A46A3F201300C282BD2DFE800F006098D
:104620000C0F1215181B1E2124271648C18922E0E1
:10463000144881891FE01448C1891CE0124881890F
:1046400019E01248C18916E01048818913E010482A
:10465000C18910E00E4881890DE00E48C1890AE049
:104660000C48818907E00C48018804E00A48418829
:1046700001E0002010BD00BF081210705170012031
:10468000F8E70000D8000020FC00002020010020F6
:104690004401002068010020C401002070B50446D8
:1046A00000200B49087040F22F150A4A29460220C3
:1046B00001F066FA0848807F1E2807DA0648817FE5
:1046C000807F401C044A90771046445470BD00001F
:1046D000B0010020DD460008B82600200120014975
:1046E00008707047B001002038B5044608480078CB
:1046F0008DF800000648407840F080008DF80100F9
:104700008DF802400321684600F016F838BD00001D
:10471000B82600201CB5002405E00648005D0DF811
:104720000400601CC4B2062CF7DB0621684600F0CA
:1047300003F81CBDB826002070B5A0B005460C4695
:10474000224629466846FBF76BFD21462846FCF7C2
:10475000A9FB064632122046611CCCB20DF800209F
:10476000F2B22046611CCCB20DF800202246694608
:104770000648FFF7DFF900BF044800680068C0F38F
:1047800080100028F8D020B070BD000098040020F0
:1047900070B505460C46A5F201300C2870D2DFE852
:1047A00000F006091B1E303345485A5D70783F48BB
:1047B000046078E03D48008844EA00403B490860D6
:1047C0000846006802F084FF39490862012139482F
:1047D000006802F0CCFF66E03448046063E03348D0
:1047E000008844EA0040314908600846006802F049
:1047F0006FFF3149086202212E48006802F0B7FFBE
:1048000051E02A4804604EE02848008844EA00400D
:10481000264908600846006802F05AFF27490862E6
:1048200004212448006802F0A2FF3CE01F48046015
:1048300039E01E48008844EA00401C4908600846E8
:10484000006802F045FF1E49086208211948006807
:1048500002F08DFF27E01548046024E0134800882B
:1048600044EA0040114908600846006802F030FF41
:104870001449086210210F48006802F078FF12E026
:104880000FE01148048001211048006802F06FFF1A
:1048900009E00D48448002210C48006802F067FFDF
:1048A00001E0002070BD00BF0120FBE7B401002043
:1048B000D8000020D4000020FC00002020010020AF
:1048C0004401002068010020C4010020C001002034
:1048D0000EB500200090019002901A481A49086015
:1048E000002119488160017301754FF46021C16195
:1048F000002015494860022113480161FCF74CFC77
:1049000008B1FCF7ECFA0B20009001200190052083
:10491000029069460C48FCF78BFB08B1FCF7DFFA04
:104920000A20009002200190052002906946064866
:10493000FCF77EFB08B1FCF7D2FA0348FCF7ECFA6F
:104940000EBD000000240140E801002000B5A9B020
:104950001422304924A8FBF763FC002124A801F0AD
:104960002EFD2D49086014222A4914311FA8FBF797
:1049700057FC00211FA801F022FD284908601422DD
:10498000244928311AA8FBF74BFC00211AA801F092
:1049900016FD2349086014221E493C3115A8FBF777
:1049A0003FFC002115A801F00AFD1E4908601422F1
:1049B0001849503110A8FBF733FC002110A801F072
:1049C000FEFC194908601422124964310BA8FBF758
:1049D00027FC00210BA801F0F2FC14490860142206
:1049E0000C49783106A8FBF71BFC002106A801F052
:1049F000E6FC0F490860142206498C3101A8FBF738
:104A00000FFC002101A801F0DAFC0A49086029B076
:104A100000BD00005C8900080400002008000020A0
:104A20000C000020100000201400002018000020BE
:104A3000200000201C00002000B585B0002001905F
:104A400002900390049000BF3948806940F0100044
:104A5000374988610846806900F01000009000BF67
:104A600000BF00BF0846806940F02000886108460A
:104A7000806900F02000009000BF00BF00BF084622
:104A8000806940F0040088610846806900F00400F5
:104A9000009000BF00BF00BF0846806940F00800DA
:104AA00088610846806900F00800009000BF00BFE0
:104AB000012251031F48FDF755F800224FF2400133
:104AC0001D48FDF74FF800224FF470711948FDF7AB
:104AD00049F800224FF410611848FDF743F84FF4ED
:104AE0000F500190012002900020039001200490BB
:104AF00001A91048FCF78EFE4FF240000190012002
:104B00000290002003900120049001A90A48FCF7BC
:104B100081FE4FF41060019001200290002003906C
:104B20000120049001A90548FCF774FE05B000BD02
:104B30000010024000100140000C0140000801403C
:104B400010B50F480F4908604FF48270486000218B
:104B50000C488160C160022101610121416149026B
:104B600081613821C16100210162416281620A21B3
:104B7000C162FDF7B3FD08B1FCF7B1F910BD00004B
:104B8000003C00406802002000B589B0002007907A
:104B900008901C216846FBF75CFB1C481C49086018
:104BA00041F61F40486000211948816040F2CF71F2
:104BB000C160002101618161FEF776FA08B1FCF75E
:104BC0008EF900200790089007A91148FDF744FED0
:104BD00008B1FCF784F9602000904FF47A700190DE
:104BE0000220029000200490042269460848FEF743
:104BF000DDF908B1FCF773F904210548FEF726FB3F
:104C00000348FDF7DFFF09B000BD000000080040C9
:104C1000C002002010B500220121802002F08AFE8F
:104C20000E4908600E480F4908604FF496404860EE
:104C300000210C488160C16001610C2141610021AB
:104C40008161C161FEF740FD08B1FCF748F901221E
:104C500005490448FEF7C6FE10BD000048000020CC
:104C6000004C0040880300203700002010B50B489E
:104C70000B4908604FF4E13048600021084881602A
:104C8000C16001610C21416100218161C161FEF7B8
:104C90001BFD08B1FCF723F910BD000000500040D7
:104CA000CC03002010B50B480B4908604FF4E130ED
:104CB0004860002108488160C16001610C214161A8
:104CC00000218161C161FEF7FFFC08B1FCF707F923
:104CD00010BD0000003801401004002010B50D4840
:104CE0000D4908604FF41650486000210A48816061
:104CF000C16001610C21416100218161C161FEF748
:104D0000E3FC08B1FCF7EBF8012204490248FEF786
:104D100069FE10BD0044004054040020350000200E
:104D200010B500220121802002F004FE0E49086027
:104D30000E480F4908604FF4E130486000210C48EC
:104D40008160C16001610C21416100218161C1610B
:104D5000FEF7BAFC08B1FCF7C2F801220549044885
:104D6000FEF740FE10BD0000440000200048004057
:104D7000980400203600002000BFFEE700BFFEE7D9
:104D800008B508490968C9084FF47A72B1FBF2F115
:104D90004143009100BF00BF00994A1E00920029C4
:104DA000F9D108BD5C00002010B500BF502080F391
:104DB0001188BFF34F8FBFF36F8F00BF03F00EFA60
:104DC00018B14FF080500449086000BF002080F304
:104DD000118800BF10BD000004ED00E000B595B0E3
:104DE00028210BA8FBF735FA142106A8FBF731FAA6
:104DF00018216846FBF72DFA01200B9000040C9057
:104E000000200D9001200F9002201290C1031391F9
:104E10004FF4E01114910BA8FDF72EFA08B1FCF73E
:104E20005EF80F20069002200790002008904FF4B3
:104E30008060099000200A90022106A8FDF7C4F8BE
:104E400008B1FCF74CF802200090800302906846FD
:104E5000FDF722F808B1FCF742F815B000BD704725
:104E600010B50248FDF7E2FD10BD0000DC04002093
:104E700010B50248FDF7DAFD10BD00000803002060
:104E800010B50F480F4908604720486000210D48C1
:104E900081604FF6FE71C16000210161FDF716FFD0
:104EA00000200949086004220648FDF7B7FE0020EB
:104EB0000649086008220348FDF7B0FE10BD000057
:104EC0000004004008030020500300206C03002071
:104ED00010B50248FDF7AAFD10BD0000C002002079
:104EE00010B50268204B98420ED0204B98420BD050
:104EF000B0F1804F08D01E4B984205D01D4B984210
:104F000002D01D4B984203D122F070024B681A4325
:104F1000154B98420ED0154B98420BD0B0F1804FF4
:104F200008D0134B984205D0124B984202D0124B36
:104F3000984203D122F44072CB681A4322F08003D6
:104F40004C6943EA040202608B68C3620B688362A7
:104F5000054B984202D0054B984201D10B6903637F
:104F60000123436110BD0000002C014000340140CA
:104F70000004004000080040000C004030B501F083
:104F80001F05012404FA05F3046A9C430462046AC1
:104F900001F01F0502FA05F52C43046230BD000044
:104FA00030B5056A25F001050562026A4368846927
:104FB00024F0700424F003040D682C4322F0020254
:104FC0008D682A43104DA84200D103E00F4DA8423E
:104FD00006D100BF22F00802CD682A4322F0040265
:104FE000094DA84202D0094DA84207D123F480738D
:104FF00023F400734D692B438D692B434360846117
:105000004D684563026230BD002C01400034014010
:1050100030B5056A25F010050562026A43688469A7
:1050200024F4E04424F440740D6844EA052422F09A
:1050300020028D6842EA0512124DA84200D103E019
:10504000114DA84207D100BF22F08002CD6842EA8C
:10505000051222F040020B4DA84202D00A4DA84290
:1050600009D123F4806323F400634D6943EA850387
:105070008D6943EA8503436084614D6885630262FC
:1050800030BD0000002C01400034014030B5056AFD
:1050900025F480750562026A4368C46924F07004CF
:1050A00024F003040D682C4322F400728D6842EA58
:1050B0000522124DA84200D103E0114DA84207D1AC
:1050C00000BF22F40062CD6842EA052222F4806229
:1050D0000A4DA84202D00A4DA84209D123F48053B8
:1050E00023F400534D6943EA05138D6943EA051320
:1050F0004360C4614D68C563026230BD002C01404D
:105100000034014030B5056A25F480550562036A14
:105110004468C26922F4E04222F440720D6842EA17
:10512000052223F400538D6843EA0533084DA84255
:1051300002D0084DA84204D124F480444D6944EAC9
:1051400085144460C2614D680564036230BD00008F
:10515000002C014000340140014908607047000004
:105160003804004001490860704700003C040040DA
:1051700010B50248FEF782F910BD00008803002038
:1051800010B50248FEF77AF910BD0000CC030020EC
:1051900070B505466C6A0020E085E0842046FEF785
:1051A00061F970BD0168C96821F490710268D1602D
:1051B0000168496921F0010102685161016B01290F
:1051C00005D10168C96821F010010268D160202171
:1051D00080F83E1000210163704710B50446206836
:1051E000C06820F040002168C860202084F83D009D
:1051F0002046FEF7CBFC002010BDF8B5044694F81D
:105200003E00222869D1A068B0F5805F0CD12069EA
:1052100050B90025A66A20684068C0F308003080B5
:10522000A06A801CA06215E0A56A0026A068B0F5FF
:10523000805F03D0A06828B9206918B92068406849
:10524000287004E02068406800F07F002870A06AA1
:10525000401CA062E08D401E80B2E085A8BB2068A3
:10526000C06820F020002168C8602068C06820F471
:1052700080702168C8602068406920F001002168C2
:105280004861202084F83E00206B01281ED10020B8
:1052900020632068C06820F010002168C860206882
:1052A000006800F0100010280AD100BF0020009014
:1052B00020680068009020684068009000BF00BF30
:1052C000A18D2046FEF7CDF803E004E02046FEF76E
:1052D000B1FB0020F8BD0020FCE70220FAE7000047
:1052E00070B504462168096921F44051E268114310
:1052F000226811612269A1681143626941EA0205CD
:105300002168C96841F20C62914329432268D16047
:105310002168496921F44071A269114322685161F1
:105320002D4A2168914202D1FCF74CFF01E0FCF7C5
:1053300039FF00EBC00101EB001162689200B1FB84
:10534000F2F100EBC00202EB001263689B00B2FBBB
:10535000F3F26423B2FBF3F202EBC20303EB02129B
:10536000A1EB8201322202EB01116422B1FBF2F1C6
:1053700001F0F00100EBC00202EB001263689B0039
:10538000B2FBF3F26423B2FBF3F201EB021200EB87
:10539000C00101EB001163689B00B1FBF3F100EB6E
:1053A000C00303EB00136668B600B3FBF6F3642694
:1053B000B3FBF6F303EBC30606EB0313A1EB830188
:1053C000322303EB01116423B1FBF3F101F00F0170
:1053D00011442268916070BD00380140014691F887
:1053E0003D00212828D18868B0F5805F0BD108697D
:1053F00048B90A6A1088C0F308000B685860086A48
:10540000801C086205E00B6A581C086218780B685B
:105410005860C88C401E80B2C88458B90868C068FB
:1054200020F080000B68D8600868C06840F0400039
:105430000B68D860002070470220FCE710B50248D6
:10544000FEF71CF810BD00001004002010B5024843
:10545000FEF714F810BD00005404002010B50248F7
:10546000FEF70CF810BD00009804002000BFFEE716
:1054700002480068C0F30220704700000CED00E015
:1054800010B5002804DB0A07130E054A135406E082
:105490000A07140E034A00F00F031B1FD45410BD5B
:1054A00000E400E018ED00E00148006870470000EB
:1054B000E401002002E008C8121F08C1002AFAD146
:1054C00070477047002001E001C1121F002AFBD184
:1054D000704700000149086070470000E4010020A7
:1054E00030380A2801D201207047002070470000A0
:1054F00086B00020059004900390029000BF984968
:105500004888FBF789F880460022964BFAF7F6FFA9
:1055100006460F46924800884FF47A7191FBF0F8E6
:105520004046FBF768F832463B46CDE90001FAF702
:1055300073FF044600228B4BFBF790F803D2052043
:105540008949087002E0012087490870874800688F
:1055500000286FD04FF0FF318448006802F0D6FC7D
:1055600002900298012865D18148FDF73FFA042195
:105570007F48FDF70BFF0020034602460321009001
:105580007C48006803F0A8F80020034600907648A5
:10559000027804217748006803F09EF8724800788A
:1055A0000A2191FBF0F07449097888426EDA6E485E
:1055B00000780A2191FBF0F070490978884265DA99
:1055C000694800780A2191FBF0F000F0FF0A0AE038
:1055D0006B4850F82A100598FAF756FE05900AF124
:1055E000010000F0FF0A604800780A2191FBF0F00A
:1055F00061490978081A5045EADA5B4800780A21BF
:1056000091FBF0F05C490978022202FB1015284654
:10561000FAF7E3FF044621460598FAF7BFFE039028
:1056200000200590504800780A2191FBF0F000F02E
:10563000FF0A0BE090E0534850F82A100598FAF75B
:1056400023FE05900AF1010000F0FF0A46480078A9
:105650000A2191FBF0F049490978081A5045EADA25
:10566000414800780A2191FBF0F044490978022270
:1056700002FB10152846FAF7B0FF044621460598AC
:10568000FAF78CFE0490002005903AE04FF0000AF3
:105690000AE03B4850F82A100598FAF7F5FD059006
:1056A0000AF1010000F0FF0A334800788245F0DD7E
:1056B00031480078FAF79AFF044621460598FAF730
:1056C0006DFE03900020059082460AE02D4850F8B8
:1056D0002A100598FAF7D8FD05900AF1010000F0AC
:1056E000FF0A264800788245F0DD24480078FAF762
:1056F0007DFF044621460598FAF750FE04900020ED
:105700000590DDE90310FAF7D9FF0DD2DDE90310AA
:10571000FAF70CFE04461C49FAF70EFE834658467B
:1057200000F08AFC194908600020144908701249E9
:1057300008700F48FDF712F904210D48FDF70CFD24
:1057400002F046FD04460020034622460121009057
:105750000848006802F0C0FF012000F01FFECEE6FE
:10576000C401002000005940D8010020C8010020D9
:10577000C0020020D4010020DA010020D90100205D
:10578000582900207827002000401C46CC0100202A
:1057900038B5134801231A461946009011A002F0AB
:1057A00057FF144908600846006820B94B2212A12F
:1057B00016A000F039F803220021012002F0BAF807
:1057C0001849086002F004FD044600200346224602
:1057D000012100900748006802F07EFF38BD0000FC
:1057E000D90D00084175746F52656C6F616454691E
:1057F0006D657200D40100202E2E5C5461736B5CC9
:10580000616E616C6F672E63000000004175746FFC
:1058100052656C6F616454696D65725F48616E6456
:105820006C650000C801002000BFFEE72DE9F041D3
:105830009CB004461423202201A9204600F0F0FA6F
:105840000546019806780299481C00F061F8074661
:10585000FAF718FF15900399481C00F059F807460D
:10586000FAF710FF16900499481C00F051F807460B
:10587000FAF708FF17900599481C00F049F8074609
:10588000FAF700FF18900699481C00F041F8074607
:10589000FAF7F8FE1990681E01AA52F820101AA80B
:1058A000FAF7E9FCA6F14100052822D2DFE800F072
:1058B00003090F151B001C2215A91048FAF7B0FCAC
:1058C00018E01C2215A90E48FAF7AAFC12E01C22C7
:1058D00015A90C48FAF7A4FC0CE01C2215A90A48EB
:1058E000FAF79EFC06E01C2215A90848FAF798FC76
:1058F00000E000BF00BF1CB0BDE8F081D800002070
:10590000FC0000202001002044010020680100204C
:1059100030B583B004460020CDE90000FFF7C4FD98
:105920000546002221466846FAF7EDFE2846FFF7B5
:10593000D1FDDDE9000103B030BD000010B5044623
:10594000601EC4B22CB900224FF480512348FCF7EA
:1059500009F9012C04D1002261032048FCF702F967
:10596000022C04D1002261031C48FCF7FBF8032C35
:1059700005D100224FF400411848FCF7F3F8042C3D
:1059800004D1002240211648FCF7ECF8052C04D184
:10599000002280211248FCF7E5F8062C05D10022F0
:1059A0004FF480710E48FCF7DDF8072C05D100227A
:1059B0004FF400710A48FCF7D5F8082C04D10022F6
:1059C00061010848FCF7CEF8092C05D100224FF4FC
:1059D00000610448FCF7C6F810BD0000000C01404F
:1059E000001001400008014010B50446601EC4B21A
:1059F00024B9012211032148FCF7B4F8012C04D189
:105A0000012251031D48FCF7ADF8022C04D10122FC
:105A100091031A48FCF7A6F8032C04D10122D10304
:105A20001648FCF79FF8042C04D1012240211448A9
:105A3000FCF798F8052C04D1012280211048FCF7CE
:105A400091F8062C04D1012211020D48FCF78AF8C6
:105A5000072C04D1012251020948FCF783F8082CD5
:105A600004D1012211020748FCF77CF8092C04D16B
:105A70000122D1020348FCF775F810BD000C01406B
:105A8000001001400008014010B50446012C08D167
:105A900001033848FCF75EF808B1012010BD002072
:105AA000FCE7022C08D121033248FCF753F808B177
:105AB0000120F3E70020F1E7032C09D14FF48041E6
:105AC0002C48FCF747F808B10120E7E70020E5E79C
:105AD000042C08D161032748FCF73CF808B10120E9
